{
  "abi": [
    {
      "inputs": [],
      "name": "IdenticalAddresses",
      "type": "error"
    },
    {
      "inputs": [],
      "name": "PairExists",
      "type": "error"
    },
    {
      "inputs": [],
      "name": "ZeroAddress",
      "type": "error"
    },
    {
      "anonymous": false,
      "inputs": [
        {
          "indexed": true,
          "internalType": "address",
          "name": "token0",
          "type": "address"
        },
        {
          "indexed": true,
          "internalType": "address",
          "name": "token1",
          "type": "address"
        },
        {
          "indexed": false,
          "internalType": "address",
          "name": "pair",
          "type": "address"
        },
        {
          "indexed": false,
          "internalType": "uint256",
          "name": "",
          "type": "uint256"
        }
      ],
      "name": "PairCreated",
      "type": "event"
    },
    {
      "inputs": [
        {
          "internalType": "uint256",
          "name": "",
          "type": "uint256"
        }
      ],
      "name": "allPairs",
      "outputs": [
        {
          "internalType": "address",
          "name": "",
          "type": "address"
        }
      ],
      "stateMutability": "view",
      "type": "function"
    },
    {
      "inputs": [
        {
          "internalType": "address",
          "name": "tokenA",
          "type": "address"
        },
        {
          "internalType": "address",
          "name": "tokenB",
          "type": "address"
        }
      ],
      "name": "createPair",
      "outputs": [
        {
          "internalType": "address",
          "name": "pair",
          "type": "address"
        }
      ],
      "stateMutability": "nonpayable",
      "type": "function"
    },
    {
      "inputs": [
        {
          "internalType": "address",
          "name": "",
          "type": "address"
        },
        {
          "internalType": "address",
          "name": "",
          "type": "address"
        }
      ],
      "name": "pairs",
      "outputs": [
        {
          "internalType": "address",
          "name": "",
          "type": "address"
        }
      ],
      "stateMutability": "view",
      "type": "function"
    }
  ],
  "bytecode": {
    "object": "0x608060405234801561001057600080fd5b5061237e806100206000396000f3fe608060405234801561001057600080fd5b50600436106100415760003560e01c80631e3dd18b1461004657806369454b8614610075578063c9c65396146100a6575b600080fd5b61005961005436600461036f565b6100b9565b6040516001600160a01b03909116815260200160405180910390f35b6100596100833660046103a4565b60006020818152928152604080822090935290815220546001600160a01b031681565b6100596100b43660046103a4565b6100e3565b600181815481106100c957600080fd5b6000918252602090912001546001600160a01b0316905081565b6000816001600160a01b0316836001600160a01b0316141561011857604051630bd969eb60e41b815260040160405180910390fd5b600080836001600160a01b0316856001600160a01b03161061013b57838561013e565b84845b90925090506001600160a01b03821661016a5760405163d92e233d60e01b815260040160405180910390fd5b6001600160a01b03828116600090815260208181526040808320858516845290915290205416156101ae57604051633d77e89160e01b815260040160405180910390fd5b6000604051806020016101c090610362565b601f1982820381018352601f9091011660408190526bffffffffffffffffffffffff19606086811b8216602084015285901b1660348201529091506000906048016040516020818303038152906040529050600081805190602001209050808351602085016000f560405163485cc95560e01b81526001600160a01b03878116600483015286811660248301529197509087169063485cc95590604401600060405180830381600087803b15801561027757600080fd5b505af115801561028b573d6000803e3d6000fd5b505050506001600160a01b0385811660008181526020818152604080832089861680855290835281842080546001600160a01b0319908116978e1697881790915584845282852086865284528285208054821688179055600180548082018255958190527fb10e2d527612073b26eecdfd717e6a320cf44b4afac2b0732d9fcbe2b7fa0cf6909501805490911687179055925481519586529185019190915290927f0d3648bd0f6ba80134a33ba9275ac585d9d315f0ad8355cddefde31afa28d0e9910160405180910390a3505050505092915050565b611f71806103d883390190565b60006020828403121561038157600080fd5b5035919050565b80356001600160a01b038116811461039f57600080fd5b919050565b600080604083850312156103b757600080fd5b6103c083610388565b91506103ce60208401610388565b9050925092905056fe60e06040523480156200001157600080fd5b50604080518082018252601381527f416472656e616c696e65537761702050616972000000000000000000000000006020808301918252835180850190945260068452652d2aa724ab1960d11b9084015281519192916012916200007991600091906200014e565b5081516200008f9060019060208501906200014e565b5060ff81166080524660a052620000a5620000b2565b60c05250620002d5915050565b60007f8b73c3c69bb8fe3d512ecc4cf759cc79239f7b179b0ffacaa9a75d522b39400f6000604051620000e6919062000231565b6040805191829003822060208301939093528101919091527fc89efdaa54c0f20c7adf612882df0950f5a951637e0307cdcb4c672f298b8bc660608201524660808201523060a082015260c00160405160208183030381529060405280519060200120905090565b8280546200015c90620001f4565b90600052602060002090601f016020900481019282620001805760008555620001cb565b82601f106200019b57805160ff1916838001178555620001cb565b82800160010185558215620001cb579182015b82811115620001cb578251825591602001919060010190620001ae565b50620001d9929150620001dd565b5090565b5b80821115620001d95760008155600101620001de565b600181811c908216806200020957607f821691505b602082108114156200022b57634e487b7160e01b600052602260045260246000fd5b50919050565b600080835481600182811c9150808316806200024e57607f831692505b60208084108214156200026f57634e487b7160e01b86526022600452602486fd5b8180156200028657600181146200029857620002c7565b60ff19861689528489019650620002c7565b60008a81526020902060005b86811015620002bf5781548b820152908501908301620002a4565b505084890196505b509498975050505050505050565b60805160a05160c051611c6c6200030560003960006109a7015260006109720152600061022b0152611c6c6000f3fe608060405234801561001057600080fd5b50600436106101425760003560e01c80635a3d5493116100b857806395d89b411161007c57806395d89b4114610307578063a9059cbb1461030f578063d21220a714610322578063d505accf14610335578063dd62ed3e14610348578063fff6cae91461037357600080fd5b80635a3d5493146102835780636a6278421461028c57806370a082311461029f5780637ecebe00146102bf57806389afcb44146102df57600080fd5b806318160ddd1161010a57806318160ddd146101fc57806323b872dd14610213578063313ce567146102265780633644e5151461025f578063485cc955146102675780635909c0d51461027a57600080fd5b8063022c0d9f1461014757806306fdde031461015c5780630902f1ac1461017a578063095ea7b3146101ae5780630dfe1681146101d1575b600080fd5b61015a6101553660046117a1565b61037b565b005b61016461076a565b6040516101719190611865565b60405180910390f35b6101826107f8565b604080516001600160701b03948516815293909216602084015263ffffffff1690820152606001610171565b6101c16101bc366004611898565b610822565b6040519015158152602001610171565b6006546101e4906001600160a01b031681565b6040516001600160a01b039091168152602001610171565b61020560025481565b604051908152602001610171565b6101c16102213660046118c2565b61088e565b61024d7f000000000000000000000000000000000000000000000000000000000000000081565b60405160ff9091168152602001610171565b61020561096e565b61015a6102753660046118fe565b6109c9565b61020560095481565b610205600a5481565b61020561029a366004611931565b610a37565b6102056102ad366004611931565b60036020526000908152604090205481565b6102056102cd366004611931565b60056020526000908152604090205481565b6102f26102ed366004611931565b610c73565b60408051928352602083019190915201610171565b610164610f52565b6101c161031d366004611898565b610f5f565b6007546101e4906001600160a01b031681565b61015a61034336600461194c565b610fc5565b6102056103563660046118fe565b600460209081526000928352604080842090915290825290205481565b61015a61120e565b600b5460ff161561038b57600080fd5b600b805460ff19166001179055841580156103a4575083155b156103c2576040516342301c2360e01b815260040160405180910390fd5b6000806103cd6107f8565b5091509150816001600160701b03168711806103f15750806001600160701b031686115b1561040f5760405163bb55fd2760e01b815260040160405180910390fd5b861561042c5760065461042c906001600160a01b0316868961130b565b851561044957600754610449906001600160a01b0316868861130b565b82156104b65760405163400676bb60e11b81526001600160a01b0386169063800ced76906104839033908b908b908a908a906004016119bf565b600060405180830381600087803b15801561049d57600080fd5b505af11580156104b1573d6000803e3d6000fd5b505050505b6006546040516370a0823160e01b81523060048201526000916001600160a01b0316906370a08231906024016020604051808303816000875af1158015610501573d6000803e3d6000fd5b505050506040513d601f19601f820116820180604052508101906105259190611a0b565b6007546040516370a0823160e01b81523060048201529192506000916001600160a01b03909116906370a08231906024016020604051808303816000875af1158015610575573d6000803e3d6000fd5b505050506040513d601f19601f820116820180604052508101906105999190611a0b565b6008549091506000906105b6908b906001600160701b0316611a3a565b83116105c35760006105e4565b6008546105da908b906001600160701b0316611a3a565b6105e49084611a3a565b600854909150600090610608908b90600160701b90046001600160701b0316611a3a565b831161061557600061063d565b600854610633908b90600160701b90046001600160701b0316611a3a565b61063d9084611a3a565b90508115801561064b575080155b156106695760405163098fb56160e01b815260040160405180910390fd5b6000610676836003611a51565b610682866103e8611a51565b61068c9190611a3a565b9050600061069b836003611a51565b6106a7866103e8611a51565b6106b19190611a3a565b90506106c96001600160701b03808916908a16611a51565b6106d690620f4240611a51565b6106e08284611a51565b10156106ff57604051632f62f0d960e21b815260040160405180910390fd5b61070b86868a8a6113fa565b604080518e8152602081018e90526001600160a01b038d169133917f2a9237ff5aa599ef4c5ee4b1142b53429d5755e2685fe6288b2e3320202115f5910160405180910390a35050600b805460ff191690555050505050505050505050565b6000805461077790611a70565b80601f01602080910402602001604051908101604052809291908181526020018280546107a390611a70565b80156107f05780601f106107c5576101008083540402835291602001916107f0565b820191906000526020600020905b8154815290600101906020018083116107d357829003601f168201915b505050505081565b6008546001600160701b0380821692600160701b830490911691600160e01b900463ffffffff1690565b3360008181526004602090815260408083206001600160a01b038716808552925280832085905551919290917f8c5be1e5ebec7d5bd14f71427d1e84f3dd0314c0f7b2291e5b200ac8c7c3b9259061087d9086815260200190565b60405180910390a350600192915050565b6001600160a01b038316600090815260046020908152604080832033845290915281205460001981146108ea576108c58382611a3a565b6001600160a01b03861660009081526004602090815260408083203384529091529020555b6001600160a01b03851660009081526003602052604081208054859290610912908490611a3a565b90915550506001600160a01b0380851660008181526003602052604090819020805487019055519091871690600080516020611c178339815191529061095b9087815260200190565b60405180910390a3506001949350505050565b60007f000000000000000000000000000000000000000000000000000000000000000046146109a45761099f611578565b905090565b507f000000000000000000000000000000000000000000000000000000000000000090565b6006546001600160a01b03161515806109ec57506007546001600160a01b031615155b15610a095760405162dc149f60e41b815260040160405180910390fd5b600680546001600160a01b039384166001600160a01b03199182161790915560078054929093169116179055565b6000806000610a446107f8565b506006546040516370a0823160e01b81523060048201529294509092506000916001600160a01b03909116906370a08231906024016020604051808303816000875af1158015610a98573d6000803e3d6000fd5b505050506040513d601f19601f82011682018060405250810190610abc9190611a0b565b6007546040516370a0823160e01b81523060048201529192506000916001600160a01b03909116906370a08231906024016020604051808303816000875af1158015610b0c573d6000803e3d6000fd5b505050506040513d601f19601f82011682018060405250810190610b309190611a0b565b90506000610b476001600160701b03861684611a3a565b90506000610b5e6001600160701b03861684611a3a565b905060025460001415610b9e576103e8610b80610b7b8385611a51565b611612565b610b8a9190611a3a565b9650610b9960006103e8611682565b610bed565b610bea866001600160701b031660025484610bb99190611a51565b610bc39190611abb565b866001600160701b031660025484610bdb9190611a51565b610be59190611abb565b6116dc565b96505b60008711610c0e57604051633489be7560e21b815260040160405180910390fd5b610c188888611682565b610c24848488886113fa565b60408051838152602081018390526001600160a01b038a16917f4c209b5fc8ad50758f13e2e1088ba56a560dff690a1c6fef26394f4c03821c4f910160405180910390a2505050505050919050565b6006546040516370a0823160e01b8152306004820152600091829182916001600160a01b0316906370a08231906024016020604051808303816000875af1158015610cc2573d6000803e3d6000fd5b505050506040513d601f19601f82011682018060405250810190610ce69190611a0b565b6007546040516370a0823160e01b81523060048201529192506000916001600160a01b03909116906370a08231906024016020604051808303816000875af1158015610d36573d6000803e3d6000fd5b505050506040513d601f19601f82011682018060405250810190610d5a9190611a0b565b3060009081526003602052604090205460025491925090610d7b8483611a51565b610d859190611abb565b600254909550610d958383611a51565b610d9f9190611abb565b9350841580610dac575083155b15610dca5760405163749383ad60e01b815260040160405180910390fd5b610dd430826116f4565b600654610deb906001600160a01b0316878761130b565b600754610e02906001600160a01b0316878661130b565b6006546040516370a0823160e01b81523060048201526001600160a01b03909116906370a08231906024016020604051808303816000875af1158015610e4c573d6000803e3d6000fd5b505050506040513d601f19601f82011682018060405250810190610e709190611a0b565b6007546040516370a0823160e01b81523060048201529194506001600160a01b0316906370a08231906024016020604051808303816000875af1158015610ebb573d6000803e3d6000fd5b505050506040513d601f19601f82011682018060405250810190610edf9190611a0b565b9150600080610eec6107f8565b5091509150610efd858584846113fa565b60408051888152602081018890526001600160a01b038a1681830152905133917fdccd412f0b1252819cb1fd330b93224ca42612892bb3f4f789976e6d81936496919081900360600190a25050505050915091565b6001805461077790611a70565b33600090815260036020526040812080548391908390610f80908490611a3a565b90915550506001600160a01b03831660008181526003602052604090819020805485019055513390600080516020611c178339815191529061087d9086815260200190565b4284101561101a5760405162461bcd60e51b815260206004820152601760248201527f5045524d49545f444541444c494e455f4558504952454400000000000000000060448201526064015b60405180910390fd5b6000600161102661096e565b6001600160a01b038a811660008181526005602090815260409182902080546001810190915582517f6e71edae12b1b97f4d1f60370fef10105fa2faae0126114a169c64845d6126c98184015280840194909452938d166060840152608083018c905260a083019390935260c08083018b90528151808403909101815260e08301909152805192019190912061190160f01b6101008301526101028201929092526101228101919091526101420160408051601f198184030181528282528051602091820120600084529083018083525260ff871690820152606081018590526080810184905260a0016020604051602081039080840390855afa158015611132573d6000803e3d6000fd5b5050604051601f1901519150506001600160a01b038116158015906111685750876001600160a01b0316816001600160a01b0316145b6111a55760405162461bcd60e51b815260206004820152600e60248201526d24a72b20a624a22fa9a4a3a722a960911b6044820152606401611011565b6001600160a01b0390811660009081526004602090815260408083208a8516808552908352928190208990555188815291928a16917f8c5be1e5ebec7d5bd14f71427d1e84f3dd0314c0f7b2291e5b200ac8c7c3b925910160405180910390a350505050505050565b6000806112196107f8565b506006546040516370a0823160e01b8152306004820152929450909250611307916001600160a01b03909116906370a08231906024016020604051808303816000875af115801561126e573d6000803e3d6000fd5b505050506040513d601f19601f820116820180604052508101906112929190611a0b565b6007546040516370a0823160e01b81523060048201526001600160a01b03909116906370a08231906024016020604051808303816000875af11580156112dc573d6000803e3d6000fd5b505050506040513d601f19601f820116820180604052508101906113009190611a0b565b84846113fa565b5050565b6040516001600160a01b03838116602483015260448201839052600091829186169060640160408051601f198184030181529181526020820180516001600160e01b031663a9059cbb60e01b179052516113659190611acf565b6000604051808303816000865af19150503d80600081146113a2576040519150601f19603f3d011682016040523d82523d6000602084013e6113a7565b606091505b50915091508115806113d557508051158015906113d55750808060200190518101906113d39190611aeb565b155b156113f3576040516312171d8360e31b815260040160405180910390fd5b5050505050565b6001600160701b0384118061141557506001600160701b0383115b15611433576040516389560ca160e01b815260040160405180910390fd5b60085463ffffffff600160e01b909104811642039081161580159061146157506000836001600160701b0316115b801561147657506000826001600160701b0316115b156114e1578063ffffffff1661149e8461148f85611756565b6001600160e01b031690611775565b600980546001600160e01b03929092169290920201905563ffffffff81166114c98361148f86611756565b600a80546001600160e01b0392909216929092020190555b506008805463ffffffff4216600160e01b026001600160e01b036001600160701b03878116600160701b9081026001600160e01b03199095168a83161794909417918216831794859055604080519382169282169290921783529290930490911660208201527fcf2aa50876cdfbb541206f89af0ee78d44a2abf8d328e37fa4917f982149848a910160405180910390a150505050565b60007f8b73c3c69bb8fe3d512ecc4cf759cc79239f7b179b0ffacaa9a75d522b39400f60006040516115aa9190611b0d565b6040805191829003822060208301939093528101919091527fc89efdaa54c0f20c7adf612882df0950f5a951637e0307cdcb4c672f298b8bc660608201524660808201523060a082015260c00160405160208183030381529060405280519060200120905090565b60006003821115611673575080600061162c600283611abb565b611637906001611ba9565b90505b8181101561166d579050806002816116528186611abb565b61165c9190611ba9565b6116669190611abb565b905061163a565b50919050565b811561167d575060015b919050565b80600260008282546116949190611ba9565b90915550506001600160a01b038216600081815260036020908152604080832080548601905551848152600080516020611c1783398151915291015b60405180910390a35050565b60008183106116eb57816116ed565b825b9392505050565b6001600160a01b0382166000908152600360205260408120805483929061171c908490611a3a565b90915550506002805482900390556040518181526000906001600160a01b03841690600080516020611c17833981519152906020016116d0565b600061176f600160701b6001600160701b038416611bc1565b92915050565b60006116ed6001600160701b03831684611bf0565b80356001600160a01b038116811461167d57600080fd5b6000806000806000608086880312156117b957600080fd5b85359450602086013593506117d06040870161178a565b9250606086013567ffffffffffffffff808211156117ed57600080fd5b818801915088601f83011261180157600080fd5b81358181111561181057600080fd5b89602082850101111561182257600080fd5b9699959850939650602001949392505050565b60005b83811015611850578181015183820152602001611838565b8381111561185f576000848401525b50505050565b6020815260008251806020840152611884816040850160208701611835565b601f01601f19169190910160400192915050565b600080604083850312156118ab57600080fd5b6118b48361178a565b946020939093013593505050565b6000806000606084860312156118d757600080fd5b6118e08461178a565b92506118ee6020850161178a565b9150604084013590509250925092565b6000806040838503121561191157600080fd5b61191a8361178a565b91506119286020840161178a565b90509250929050565b60006020828403121561194357600080fd5b6116ed8261178a565b600080600080600080600060e0888a03121561196757600080fd5b6119708861178a565b965061197e6020890161178a565b95506040880135945060608801359350608088013560ff811681146119a257600080fd5b9699959850939692959460a0840135945060c09093013592915050565b60018060a01b038616815284602082015283604082015260806060820152816080820152818360a0830137600081830160a090810191909152601f909201601f19160101949350505050565b600060208284031215611a1d57600080fd5b5051919050565b634e487b7160e01b600052601160045260246000fd5b600082821015611a4c57611a4c611a24565b500390565b6000816000190483118215151615611a6b57611a6b611a24565b500290565b600181811c90821680611a8457607f821691505b6020821081141561166d57634e487b7160e01b600052602260045260246000fd5b634e487b7160e01b600052601260045260246000fd5b600082611aca57611aca611aa5565b500490565b60008251611ae1818460208701611835565b9190910192915050565b600060208284031215611afd57600080fd5b815180151581146116ed57600080fd5b600080835481600182811c915080831680611b2957607f831692505b6020808410821415611b4957634e487b7160e01b86526022600452602486fd5b818015611b5d5760018114611b6e57611b9b565b60ff19861689528489019650611b9b565b60008a81526020902060005b86811015611b935781548b820152908501908301611b7a565b505084890196505b509498975050505050505050565b60008219821115611bbc57611bbc611a24565b500190565b60006001600160e01b0382811684821681151582840482111615611be757611be7611a24565b02949350505050565b60006001600160e01b0383811680611c0a57611c0a611aa5565b9216919091049291505056feddf252ad1be2c89b69c2b068fc378daa952ba7f163c4a11628f55a4df523b3efa2646970667358221220373e7e3e470d7085ba20338258fcd982152c8f4b9220d352eee314a3504b0cc464736f6c634300080a0033a2646970667358221220978e276f21fef9daa30e4f56d0594e7cb62573c0e41d6eae9f8164175eac168c64736f6c634300080a0033",
    "linkReferences": {}
  },
  "methodIdentifiers": {
    "allPairs(uint256)": "1e3dd18b",
    "createPair(address,address)": "c9c65396",
    "pairs(address,address)": "69454b86"
  },
  "id": 7
}