{
  "abi": [
    {
      "inputs": [
        {
          "internalType": "address",
          "name": "factoryAddress",
          "type": "address"
        }
      ],
      "stateMutability": "nonpayable",
      "type": "constructor"
    },
    {
      "inputs": [],
      "name": "ExcessiveInputAmount",
      "type": "error"
    },
    {
      "inputs": [],
      "name": "InsufficientAAmount",
      "type": "error"
    },
    {
      "inputs": [],
      "name": "InsufficientBAmount",
      "type": "error"
    },
    {
      "inputs": [],
      "name": "InsufficientOutputAmount",
      "type": "error"
    },
    {
      "inputs": [],
      "name": "SafeTransferFailed",
      "type": "error"
    },
    {
      "inputs": [
        {
          "internalType": "address",
          "name": "tokenA",
          "type": "address"
        },
        {
          "internalType": "address",
          "name": "tokenB",
          "type": "address"
        },
        {
          "internalType": "uint256",
          "name": "amountADesired",
          "type": "uint256"
        },
        {
          "internalType": "uint256",
          "name": "amountBDesired",
          "type": "uint256"
        },
        {
          "internalType": "uint256",
          "name": "amountAMin",
          "type": "uint256"
        },
        {
          "internalType": "uint256",
          "name": "amountBMin",
          "type": "uint256"
        },
        {
          "internalType": "address",
          "name": "to",
          "type": "address"
        }
      ],
      "name": "addLiquidity",
      "outputs": [
        {
          "internalType": "uint256",
          "name": "amountA",
          "type": "uint256"
        },
        {
          "internalType": "uint256",
          "name": "amountB",
          "type": "uint256"
        },
        {
          "internalType": "uint256",
          "name": "liquidity",
          "type": "uint256"
        }
      ],
      "stateMutability": "nonpayable",
      "type": "function"
    },
    {
      "inputs": [
        {
          "internalType": "address",
          "name": "tokenA",
          "type": "address"
        },
        {
          "internalType": "address",
          "name": "tokenB",
          "type": "address"
        },
        {
          "internalType": "uint256",
          "name": "liquidity",
          "type": "uint256"
        },
        {
          "internalType": "uint256",
          "name": "amountAMin",
          "type": "uint256"
        },
        {
          "internalType": "uint256",
          "name": "amountBMin",
          "type": "uint256"
        },
        {
          "internalType": "address",
          "name": "to",
          "type": "address"
        }
      ],
      "name": "removeLiquidity",
      "outputs": [
        {
          "internalType": "uint256",
          "name": "amountA",
          "type": "uint256"
        },
        {
          "internalType": "uint256",
          "name": "amountB",
          "type": "uint256"
        }
      ],
      "stateMutability": "nonpayable",
      "type": "function"
    },
    {
      "inputs": [
        {
          "internalType": "uint256",
          "name": "amountIn",
          "type": "uint256"
        },
        {
          "internalType": "uint256",
          "name": "amountOutMin",
          "type": "uint256"
        },
        {
          "internalType": "address[]",
          "name": "path",
          "type": "address[]"
        },
        {
          "internalType": "address",
          "name": "to",
          "type": "address"
        }
      ],
      "name": "swapExactTokensForTokens",
      "outputs": [
        {
          "internalType": "uint256[]",
          "name": "amounts",
          "type": "uint256[]"
        }
      ],
      "stateMutability": "nonpayable",
      "type": "function"
    },
    {
      "inputs": [
        {
          "internalType": "uint256",
          "name": "amountOut",
          "type": "uint256"
        },
        {
          "internalType": "uint256",
          "name": "amountInMax",
          "type": "uint256"
        },
        {
          "internalType": "address[]",
          "name": "path",
          "type": "address[]"
        },
        {
          "internalType": "address",
          "name": "to",
          "type": "address"
        }
      ],
      "name": "swapTokensForExactTokens",
      "outputs": [
        {
          "internalType": "uint256[]",
          "name": "amounts",
          "type": "uint256[]"
        }
      ],
      "stateMutability": "nonpayable",
      "type": "function"
    }
  ],
  "bytecode": {
    "object": "0x608060405234801561001057600080fd5b5060405161326d38038061326d83398101604081905261002f91610054565b600080546001600160a01b0319166001600160a01b0392909216919091179055610084565b60006020828403121561006657600080fd5b81516001600160a01b038116811461007d57600080fd5b9392505050565b6131da806100936000396000f3fe60806040523480156200001157600080fd5b5060043610620000525760003560e01c806342712a671462000057578063472b43f31462000086578063c0e3ee6b146200009d578063ca3d653914620000ca575b600080fd5b6200006e6200006836600462000d9d565b620000fd565b6040516200007d919062000e42565b60405180910390f35b6200006e6200009736600462000d9d565b620002f5565b620000b4620000ae36600462000e88565b620003db565b604080519283526020830191909152016200007d565b620000e1620000db36600462000ef6565b6200053a565b604080519384526020840192909252908201526060016200007d565b600054604051630c90945960e11b815260609173__$923781e2cf9285ce0eaf3b80cd64852012$__9163192128b2916200014c916001600160a01b03909116908a908990899060040162000f6f565b600060405180830381865af41580156200016a573d6000803e3d6000fd5b505050506040513d6000823e601f3d908101601f1916820160405262000194919081019062000fec565b9050848160018351620001a89190620010cc565b81518110620001bb57620001bb620010e6565b60200260200101511115620001e35760405163e1b0da4f60e01b815260040160405180910390fd5b620002ab84846000818110620001fd57620001fd620010e6565b9050602002016020810190620002149190620010fc565b60008054339162000287916001600160a01b03169089908990816200023d576200023d620010e6565b9050602002016020810190620002549190620010fc565b898960018181106200026a576200026a620010e6565b9050602002016020810190620002819190620010fc565b62000715565b846000815181106200029d576200029d620010e6565b602002602001015162000801565b620002ec8185858080602002602001604051908101604052809392919081815260200183836020028082843760009201919091525087925062000902915050565b95945050505050565b600054604051635dbdce3b60e11b815260609173__$923781e2cf9285ce0eaf3b80cd64852012$__9163bb7b9c769162000344916001600160a01b03909116908a908990899060040162000f6f565b600060405180830381865af415801562000362573d6000803e3d6000fd5b505050506040513d6000823e601f3d908101601f191682016040526200038c919081019062000fec565b9050848160018351620003a09190620010cc565b81518110620003b357620003b3620010e6565b60200260200101511015620001e3576040516342301c2360e01b815260040160405180910390fd5b6000805481908190620003f9906001600160a01b03168a8a62000715565b6040516323b872dd60e01b81523360048201526001600160a01b03821660248201819052604482018a90529192506323b872dd906064016020604051808303816000875af115801562000450573d6000803e3d6000fd5b505050506040513d601f19601f8201168201806040525081019062000476919062001123565b5060405163226bf2d160e21b81526001600160a01b0385811660048301528216906389afcb449060240160408051808303816000875af1158015620004bf573d6000803e3d6000fd5b505050506040513d601f19601f82011682018060405250810190620004e5919062001147565b9093509150858310156200050c57604051638dc525d160e01b815260040160405180910390fd5b848310156200052e5760405163ef71d09160e01b815260040160405180910390fd5b50965096945050505050565b600080546040516334a2a5c360e11b81526001600160a01b038a811660048301528981166024830152839283928392909116906369454b8690604401602060405180830381865afa15801562000594573d6000803e3d6000fd5b505050506040513d601f19601f82011682018060405250810190620005ba91906200116c565b6001600160a01b0316141562000647576000546040516364e329cb60e11b81526001600160a01b038c811660048301528b811660248301529091169063c9c65396906044016020604051808303816000875af11580156200061f573d6000803e3d6000fd5b505050506040513d601f19601f820116820180604052508101906200064591906200116c565b505b620006578a8a8a8a8a8a62000af3565b600080549295509093509062000678906001600160a01b03168c8c62000715565b9050620006888b33838762000801565b620006968a33838662000801565b6040516335313c2160e11b81526001600160a01b038681166004830152821690636a627842906024016020604051808303816000875af1158015620006df573d6000803e3d6000fd5b505050506040513d601f19601f820116820180604052508101906200070591906200118c565b9150509750975097945050505050565b600080600062000726858562000d43565b6040516bffffffffffffffffffffffff19606084811b8216602084015283901b1660348201529193509150869060480160405160208183030381529060405280519060200120604051806020016200077e9062000d76565b6020820181038252601f19601f8201166040525080519060200120604051602001620007df939291906001600160f81b0319815260609390931b6bffffffffffffffffffffffff191660018401526015830191909152603582015260550190565b60408051601f1981840301815291905280516020909101209695505050505050565b6040516001600160a01b038481166024830152838116604483015260648201839052600091829187169060840160408051601f198184030181529181526020820180516001600160e01b03166323b872dd60e01b17905251620008659190620011a6565b6000604051808303816000865af19150503d8060008114620008a4576040519150601f19603f3d011682016040523d82523d6000602084013e620008a9565b606091505b5091509150811580620008db5750805115801590620008db575080806020019051810190620008d9919062001123565b155b15620008fa5760405163fb7f507960e01b815260040160405180910390fd5b505050505050565b60005b60018351620009159190620010cc565b81101562000aed57600080848381518110620009355762000935620010e6565b6020026020010151858460016200094d9190620011e4565b81518110620009605762000960620010e6565b60200260200101519150915060006200097a838362000d43565b5090506000876200098d866001620011e4565b81518110620009a057620009a0620010e6565b60200260200101519050600080836001600160a01b0316866001600160a01b031614620009d057826000620009d4565b6000835b91509150600060028a51620009ea9190620010cc565b8810620009f8578862000a39565b60005462000a39906001600160a01b0316878c62000a188c6002620011e4565b8151811062000a2b5762000a2b620010e6565b602002602001015162000715565b60005490915062000a55906001600160a01b0316888862000715565b60405163022c0d9f60e01b815260048101859052602481018490526001600160a01b0383811660448301526080606483015260006084830152919091169063022c0d9f9060a401600060405180830381600087803b15801562000ab757600080fd5b505af115801562000acc573d6000803e3d6000fd5b5050505050505050505050808062000ae490620011ff565b91505062000905565b50505050565b60008054604051633274946160e01b81526001600160a01b0391821660048201528882166024820152908716604482015281908190819073__$923781e2cf9285ce0eaf3b80cd64852012$__906332749461906064016040805180830381865af415801562000b66573d6000803e3d6000fd5b505050506040513d601f19601f8201168201806040525081019062000b8c919062001147565b9150915081600014801562000b9f575080155b1562000bb15787935086925062000d36565b604051632b58577b60e21b815260048101899052602481018390526044810182905260009073__$923781e2cf9285ce0eaf3b80cd64852012$__9063ad615dec90606401602060405180830381865af415801562000c13573d6000803e3d6000fd5b505050506040513d601f19601f8201168201806040525081019062000c3991906200118c565b905087811162000c705785811162000c645760405163ef71d09160e01b815260040160405180910390fd5b88945092508262000d34565b604051632b58577b60e21b815260048101899052602481018390526044810184905260009073__$923781e2cf9285ce0eaf3b80cd64852012$__9063ad615dec90606401602060405180830381865af415801562000cd2573d6000803e3d6000fd5b505050506040513d601f19601f8201168201806040525081019062000cf891906200118c565b90508981111562000d0d5762000d0d6200121d565b87811162000d2e57604051638dc525d160e01b815260040160405180910390fd5b94508793505b505b5050965096945050505050565b600080826001600160a01b0316846001600160a01b03161062000d6857828462000d6b565b83835b915091509250929050565b611f71806200123483390190565b6001600160a01b038116811462000d9a57600080fd5b50565b60008060008060006080868803121562000db657600080fd5b8535945060208601359350604086013567ffffffffffffffff8082111562000ddd57600080fd5b818801915088601f83011262000df257600080fd5b81358181111562000e0257600080fd5b8960208260051b850101111562000e1857600080fd5b602083019550809450505050606086013562000e348162000d84565b809150509295509295909350565b6020808252825182820181905260009190848201906040850190845b8181101562000e7c5783518352928401929184019160010162000e5e565b50909695505050505050565b60008060008060008060c0878903121562000ea257600080fd5b863562000eaf8162000d84565b9550602087013562000ec18162000d84565b945060408701359350606087013592506080870135915060a087013562000ee88162000d84565b809150509295509295509295565b600080600080600080600060e0888a03121562000f1257600080fd5b873562000f1f8162000d84565b9650602088013562000f318162000d84565b955060408801359450606088013593506080880135925060a0880135915060c088013562000f5f8162000d84565b8091505092959891949750929550565b6001600160a01b03858116825260208083018690526060604084018190528301849052600091859160808501845b8781101562000fc857843562000fb38162000d84565b84168252938201939082019060010162000f9d565b509998505050505050505050565b634e487b7160e01b600052604160045260246000fd5b600060208083850312156200100057600080fd5b825167ffffffffffffffff808211156200101957600080fd5b818501915085601f8301126200102e57600080fd5b81518181111562001043576200104362000fd6565b8060051b604051601f19603f830116810181811085821117156200106b576200106b62000fd6565b6040529182528482019250838101850191888311156200108a57600080fd5b938501935b82851015620010aa578451845293850193928501926200108f565b98975050505050505050565b634e487b7160e01b600052601160045260246000fd5b600082821015620010e157620010e1620010b6565b500390565b634e487b7160e01b600052603260045260246000fd5b6000602082840312156200110f57600080fd5b81356200111c8162000d84565b9392505050565b6000602082840312156200113657600080fd5b815180151581146200111c57600080fd5b600080604083850312156200115b57600080fd5b505080516020909101519092909150565b6000602082840312156200117f57600080fd5b81516200111c8162000d84565b6000602082840312156200119f57600080fd5b5051919050565b6000825160005b81811015620011c95760208186018101518583015201620011ad565b81811115620011d9576000828501525b509190910192915050565b60008219821115620011fa57620011fa620010b6565b500190565b6000600019821415620012165762001216620010b6565b5060010190565b634e487b7160e01b600052600160045260246000fdfe60e06040523480156200001157600080fd5b50604080518082018252601381527f416472656e616c696e65537761702050616972000000000000000000000000006020808301918252835180850190945260068452652d2aa724ab1960d11b9084015281519192916012916200007991600091906200014e565b5081516200008f9060019060208501906200014e565b5060ff81166080524660a052620000a5620000b2565b60c05250620002d5915050565b60007f8b73c3c69bb8fe3d512ecc4cf759cc79239f7b179b0ffacaa9a75d522b39400f6000604051620000e6919062000231565b6040805191829003822060208301939093528101919091527fc89efdaa54c0f20c7adf612882df0950f5a951637e0307cdcb4c672f298b8bc660608201524660808201523060a082015260c00160405160208183030381529060405280519060200120905090565b8280546200015c90620001f4565b90600052602060002090601f016020900481019282620001805760008555620001cb565b82601f106200019b57805160ff1916838001178555620001cb565b82800160010185558215620001cb579182015b82811115620001cb578251825591602001919060010190620001ae565b50620001d9929150620001dd565b5090565b5b80821115620001d95760008155600101620001de565b600181811c908216806200020957607f821691505b602082108114156200022b57634e487b7160e01b600052602260045260246000fd5b50919050565b600080835481600182811c9150808316806200024e57607f831692505b60208084108214156200026f57634e487b7160e01b86526022600452602486fd5b8180156200028657600181146200029857620002c7565b60ff19861689528489019650620002c7565b60008a81526020902060005b86811015620002bf5781548b820152908501908301620002a4565b505084890196505b509498975050505050505050565b60805160a05160c051611c6c6200030560003960006109a7015260006109720152600061022b0152611c6c6000f3fe608060405234801561001057600080fd5b50600436106101425760003560e01c80635a3d5493116100b857806395d89b411161007c57806395d89b4114610307578063a9059cbb1461030f578063d21220a714610322578063d505accf14610335578063dd62ed3e14610348578063fff6cae91461037357600080fd5b80635a3d5493146102835780636a6278421461028c57806370a082311461029f5780637ecebe00146102bf57806389afcb44146102df57600080fd5b806318160ddd1161010a57806318160ddd146101fc57806323b872dd14610213578063313ce567146102265780633644e5151461025f578063485cc955146102675780635909c0d51461027a57600080fd5b8063022c0d9f1461014757806306fdde031461015c5780630902f1ac1461017a578063095ea7b3146101ae5780630dfe1681146101d1575b600080fd5b61015a6101553660046117a1565b61037b565b005b61016461076a565b6040516101719190611865565b60405180910390f35b6101826107f8565b604080516001600160701b03948516815293909216602084015263ffffffff1690820152606001610171565b6101c16101bc366004611898565b610822565b6040519015158152602001610171565b6006546101e4906001600160a01b031681565b6040516001600160a01b039091168152602001610171565b61020560025481565b604051908152602001610171565b6101c16102213660046118c2565b61088e565b61024d7f000000000000000000000000000000000000000000000000000000000000000081565b60405160ff9091168152602001610171565b61020561096e565b61015a6102753660046118fe565b6109c9565b61020560095481565b610205600a5481565b61020561029a366004611931565b610a37565b6102056102ad366004611931565b60036020526000908152604090205481565b6102056102cd366004611931565b60056020526000908152604090205481565b6102f26102ed366004611931565b610c73565b60408051928352602083019190915201610171565b610164610f52565b6101c161031d366004611898565b610f5f565b6007546101e4906001600160a01b031681565b61015a61034336600461194c565b610fc5565b6102056103563660046118fe565b600460209081526000928352604080842090915290825290205481565b61015a61120e565b600b5460ff161561038b57600080fd5b600b805460ff19166001179055841580156103a4575083155b156103c2576040516342301c2360e01b815260040160405180910390fd5b6000806103cd6107f8565b5091509150816001600160701b03168711806103f15750806001600160701b031686115b1561040f5760405163bb55fd2760e01b815260040160405180910390fd5b861561042c5760065461042c906001600160a01b0316868961130b565b851561044957600754610449906001600160a01b0316868861130b565b82156104b65760405163400676bb60e11b81526001600160a01b0386169063800ced76906104839033908b908b908a908a906004016119bf565b600060405180830381600087803b15801561049d57600080fd5b505af11580156104b1573d6000803e3d6000fd5b505050505b6006546040516370a0823160e01b81523060048201526000916001600160a01b0316906370a08231906024016020604051808303816000875af1158015610501573d6000803e3d6000fd5b505050506040513d601f19601f820116820180604052508101906105259190611a0b565b6007546040516370a0823160e01b81523060048201529192506000916001600160a01b03909116906370a08231906024016020604051808303816000875af1158015610575573d6000803e3d6000fd5b505050506040513d601f19601f820116820180604052508101906105999190611a0b565b6008549091506000906105b6908b906001600160701b0316611a3a565b83116105c35760006105e4565b6008546105da908b906001600160701b0316611a3a565b6105e49084611a3a565b600854909150600090610608908b90600160701b90046001600160701b0316611a3a565b831161061557600061063d565b600854610633908b90600160701b90046001600160701b0316611a3a565b61063d9084611a3a565b90508115801561064b575080155b156106695760405163098fb56160e01b815260040160405180910390fd5b6000610676836003611a51565b610682866103e8611a51565b61068c9190611a3a565b9050600061069b836003611a51565b6106a7866103e8611a51565b6106b19190611a3a565b90506106c96001600160701b03808916908a16611a51565b6106d690620f4240611a51565b6106e08284611a51565b10156106ff57604051632f62f0d960e21b815260040160405180910390fd5b61070b86868a8a6113fa565b604080518e8152602081018e90526001600160a01b038d169133917f2a9237ff5aa599ef4c5ee4b1142b53429d5755e2685fe6288b2e3320202115f5910160405180910390a35050600b805460ff191690555050505050505050505050565b6000805461077790611a70565b80601f01602080910402602001604051908101604052809291908181526020018280546107a390611a70565b80156107f05780601f106107c5576101008083540402835291602001916107f0565b820191906000526020600020905b8154815290600101906020018083116107d357829003601f168201915b505050505081565b6008546001600160701b0380821692600160701b830490911691600160e01b900463ffffffff1690565b3360008181526004602090815260408083206001600160a01b038716808552925280832085905551919290917f8c5be1e5ebec7d5bd14f71427d1e84f3dd0314c0f7b2291e5b200ac8c7c3b9259061087d9086815260200190565b60405180910390a350600192915050565b6001600160a01b038316600090815260046020908152604080832033845290915281205460001981146108ea576108c58382611a3a565b6001600160a01b03861660009081526004602090815260408083203384529091529020555b6001600160a01b03851660009081526003602052604081208054859290610912908490611a3a565b90915550506001600160a01b0380851660008181526003602052604090819020805487019055519091871690600080516020611c178339815191529061095b9087815260200190565b60405180910390a3506001949350505050565b60007f000000000000000000000000000000000000000000000000000000000000000046146109a45761099f611578565b905090565b507f000000000000000000000000000000000000000000000000000000000000000090565b6006546001600160a01b03161515806109ec57506007546001600160a01b031615155b15610a095760405162dc149f60e41b815260040160405180910390fd5b600680546001600160a01b039384166001600160a01b03199182161790915560078054929093169116179055565b6000806000610a446107f8565b506006546040516370a0823160e01b81523060048201529294509092506000916001600160a01b03909116906370a08231906024016020604051808303816000875af1158015610a98573d6000803e3d6000fd5b505050506040513d601f19601f82011682018060405250810190610abc9190611a0b565b6007546040516370a0823160e01b81523060048201529192506000916001600160a01b03909116906370a08231906024016020604051808303816000875af1158015610b0c573d6000803e3d6000fd5b505050506040513d601f19601f82011682018060405250810190610b309190611a0b565b90506000610b476001600160701b03861684611a3a565b90506000610b5e6001600160701b03861684611a3a565b905060025460001415610b9e576103e8610b80610b7b8385611a51565b611612565b610b8a9190611a3a565b9650610b9960006103e8611682565b610bed565b610bea866001600160701b031660025484610bb99190611a51565b610bc39190611abb565b866001600160701b031660025484610bdb9190611a51565b610be59190611abb565b6116dc565b96505b60008711610c0e57604051633489be7560e21b815260040160405180910390fd5b610c188888611682565b610c24848488886113fa565b60408051838152602081018390526001600160a01b038a16917f4c209b5fc8ad50758f13e2e1088ba56a560dff690a1c6fef26394f4c03821c4f910160405180910390a2505050505050919050565b6006546040516370a0823160e01b8152306004820152600091829182916001600160a01b0316906370a08231906024016020604051808303816000875af1158015610cc2573d6000803e3d6000fd5b505050506040513d601f19601f82011682018060405250810190610ce69190611a0b565b6007546040516370a0823160e01b81523060048201529192506000916001600160a01b03909116906370a08231906024016020604051808303816000875af1158015610d36573d6000803e3d6000fd5b505050506040513d601f19601f82011682018060405250810190610d5a9190611a0b565b3060009081526003602052604090205460025491925090610d7b8483611a51565b610d859190611abb565b600254909550610d958383611a51565b610d9f9190611abb565b9350841580610dac575083155b15610dca5760405163749383ad60e01b815260040160405180910390fd5b610dd430826116f4565b600654610deb906001600160a01b0316878761130b565b600754610e02906001600160a01b0316878661130b565b6006546040516370a0823160e01b81523060048201526001600160a01b03909116906370a08231906024016020604051808303816000875af1158015610e4c573d6000803e3d6000fd5b505050506040513d601f19601f82011682018060405250810190610e709190611a0b565b6007546040516370a0823160e01b81523060048201529194506001600160a01b0316906370a08231906024016020604051808303816000875af1158015610ebb573d6000803e3d6000fd5b505050506040513d601f19601f82011682018060405250810190610edf9190611a0b565b9150600080610eec6107f8565b5091509150610efd858584846113fa565b60408051888152602081018890526001600160a01b038a1681830152905133917fdccd412f0b1252819cb1fd330b93224ca42612892bb3f4f789976e6d81936496919081900360600190a25050505050915091565b6001805461077790611a70565b33600090815260036020526040812080548391908390610f80908490611a3a565b90915550506001600160a01b03831660008181526003602052604090819020805485019055513390600080516020611c178339815191529061087d9086815260200190565b4284101561101a5760405162461bcd60e51b815260206004820152601760248201527f5045524d49545f444541444c494e455f4558504952454400000000000000000060448201526064015b60405180910390fd5b6000600161102661096e565b6001600160a01b038a811660008181526005602090815260409182902080546001810190915582517f6e71edae12b1b97f4d1f60370fef10105fa2faae0126114a169c64845d6126c98184015280840194909452938d166060840152608083018c905260a083019390935260c08083018b90528151808403909101815260e08301909152805192019190912061190160f01b6101008301526101028201929092526101228101919091526101420160408051601f198184030181528282528051602091820120600084529083018083525260ff871690820152606081018590526080810184905260a0016020604051602081039080840390855afa158015611132573d6000803e3d6000fd5b5050604051601f1901519150506001600160a01b038116158015906111685750876001600160a01b0316816001600160a01b0316145b6111a55760405162461bcd60e51b815260206004820152600e60248201526d24a72b20a624a22fa9a4a3a722a960911b6044820152606401611011565b6001600160a01b0390811660009081526004602090815260408083208a8516808552908352928190208990555188815291928a16917f8c5be1e5ebec7d5bd14f71427d1e84f3dd0314c0f7b2291e5b200ac8c7c3b925910160405180910390a350505050505050565b6000806112196107f8565b506006546040516370a0823160e01b8152306004820152929450909250611307916001600160a01b03909116906370a08231906024016020604051808303816000875af115801561126e573d6000803e3d6000fd5b505050506040513d601f19601f820116820180604052508101906112929190611a0b565b6007546040516370a0823160e01b81523060048201526001600160a01b03909116906370a08231906024016020604051808303816000875af11580156112dc573d6000803e3d6000fd5b505050506040513d601f19601f820116820180604052508101906113009190611a0b565b84846113fa565b5050565b6040516001600160a01b03838116602483015260448201839052600091829186169060640160408051601f198184030181529181526020820180516001600160e01b031663a9059cbb60e01b179052516113659190611acf565b6000604051808303816000865af19150503d80600081146113a2576040519150601f19603f3d011682016040523d82523d6000602084013e6113a7565b606091505b50915091508115806113d557508051158015906113d55750808060200190518101906113d39190611aeb565b155b156113f3576040516312171d8360e31b815260040160405180910390fd5b5050505050565b6001600160701b0384118061141557506001600160701b0383115b15611433576040516389560ca160e01b815260040160405180910390fd5b60085463ffffffff600160e01b909104811642039081161580159061146157506000836001600160701b0316115b801561147657506000826001600160701b0316115b156114e1578063ffffffff1661149e8461148f85611756565b6001600160e01b031690611775565b600980546001600160e01b03929092169290920201905563ffffffff81166114c98361148f86611756565b600a80546001600160e01b0392909216929092020190555b506008805463ffffffff4216600160e01b026001600160e01b036001600160701b03878116600160701b9081026001600160e01b03199095168a83161794909417918216831794859055604080519382169282169290921783529290930490911660208201527fcf2aa50876cdfbb541206f89af0ee78d44a2abf8d328e37fa4917f982149848a910160405180910390a150505050565b60007f8b73c3c69bb8fe3d512ecc4cf759cc79239f7b179b0ffacaa9a75d522b39400f60006040516115aa9190611b0d565b6040805191829003822060208301939093528101919091527fc89efdaa54c0f20c7adf612882df0950f5a951637e0307cdcb4c672f298b8bc660608201524660808201523060a082015260c00160405160208183030381529060405280519060200120905090565b60006003821115611673575080600061162c600283611abb565b611637906001611ba9565b90505b8181101561166d579050806002816116528186611abb565b61165c9190611ba9565b6116669190611abb565b905061163a565b50919050565b811561167d575060015b919050565b80600260008282546116949190611ba9565b90915550506001600160a01b038216600081815260036020908152604080832080548601905551848152600080516020611c1783398151915291015b60405180910390a35050565b60008183106116eb57816116ed565b825b9392505050565b6001600160a01b0382166000908152600360205260408120805483929061171c908490611a3a565b90915550506002805482900390556040518181526000906001600160a01b03841690600080516020611c17833981519152906020016116d0565b600061176f600160701b6001600160701b038416611bc1565b92915050565b60006116ed6001600160701b03831684611bf0565b80356001600160a01b038116811461167d57600080fd5b6000806000806000608086880312156117b957600080fd5b85359450602086013593506117d06040870161178a565b9250606086013567ffffffffffffffff808211156117ed57600080fd5b818801915088601f83011261180157600080fd5b81358181111561181057600080fd5b89602082850101111561182257600080fd5b9699959850939650602001949392505050565b60005b83811015611850578181015183820152602001611838565b8381111561185f576000848401525b50505050565b6020815260008251806020840152611884816040850160208701611835565b601f01601f19169190910160400192915050565b600080604083850312156118ab57600080fd5b6118b48361178a565b946020939093013593505050565b6000806000606084860312156118d757600080fd5b6118e08461178a565b92506118ee6020850161178a565b9150604084013590509250925092565b6000806040838503121561191157600080fd5b61191a8361178a565b91506119286020840161178a565b90509250929050565b60006020828403121561194357600080fd5b6116ed8261178a565b600080600080600080600060e0888a03121561196757600080fd5b6119708861178a565b965061197e6020890161178a565b95506040880135945060608801359350608088013560ff811681146119a257600080fd5b9699959850939692959460a0840135945060c09093013592915050565b60018060a01b038616815284602082015283604082015260806060820152816080820152818360a0830137600081830160a090810191909152601f909201601f19160101949350505050565b600060208284031215611a1d57600080fd5b5051919050565b634e487b7160e01b600052601160045260246000fd5b600082821015611a4c57611a4c611a24565b500390565b6000816000190483118215151615611a6b57611a6b611a24565b500290565b600181811c90821680611a8457607f821691505b6020821081141561166d57634e487b7160e01b600052602260045260246000fd5b634e487b7160e01b600052601260045260246000fd5b600082611aca57611aca611aa5565b500490565b60008251611ae1818460208701611835565b9190910192915050565b600060208284031215611afd57600080fd5b815180151581146116ed57600080fd5b600080835481600182811c915080831680611b2957607f831692505b6020808410821415611b4957634e487b7160e01b86526022600452602486fd5b818015611b5d5760018114611b6e57611b9b565b60ff19861689528489019650611b9b565b60008a81526020902060005b86811015611b935781548b820152908501908301611b7a565b505084890196505b509498975050505050505050565b60008219821115611bbc57611bbc611a24565b500190565b60006001600160e01b0382811684821681151582840482111615611be757611be7611a24565b02949350505050565b60006001600160e01b0383811680611c0a57611c0a611aa5565b9216919091049291505056feddf252ad1be2c89b69c2b068fc378daa952ba7f163c4a11628f55a4df523b3efa2646970667358221220373e7e3e470d7085ba20338258fcd982152c8f4b9220d352eee314a3504b0cc464736f6c634300080a0033a26469706673582212205c2bb3cb9582f384de4c9f230ecfd1aba192c0bab05a82b0f8398b1bf2e7dfb464736f6c634300080a0033",
    "linkReferences": {
      "src/AdrenalineSwapLibrary.sol": {
        "AdrenalineSwapLibrary": [
          {
            "start": 421,
            "length": 20
          },
          {
            "start": 925,
            "length": 20
          },
          {
            "start": 3007,
            "length": 20
          },
          {
            "start": 3179,
            "length": 20
          },
          {
            "start": 3370,
            "length": 20
          }
        ]
      }
    }
  },
  "methodIdentifiers": {
    "addLiquidity(address,address,uint256,uint256,uint256,uint256,address)": "ca3d6539",
    "removeLiquidity(address,address,uint256,uint256,uint256,address)": "c0e3ee6b",
    "swapExactTokensForTokens(uint256,uint256,address[],address)": "472b43f3",
    "swapTokensForExactTokens(uint256,uint256,address[],address)": "42712a67"
  },
  "id": 10
}